:100000000C942D010C9455010C9455010C94550140
:100010000C9455010C9455010C9455010C94550108
:100020000C9455010C9455010C94C7070C94360898
:100030000C9455010C9455010C9455010C945501E8
:100040000C9455010C9455010C9455010C945501D8
:100050000C9455010C9455010C9455010C947D079A
:100060000C9455010C9455010C9455010C945501B8
:100070000C9455010C9455010C9455010C945501A8
:100080000C9455010C9455010C9455010C94550198
:100090000C9455010C9455010C9455010C94550188
:1000A0000C9455010C9455010C945501080B000259
:1000B0000202000009040000010202000005240001
:1000C0001001052401010104240206052406000193
:1000D0000705810310004009040100020A00000026
:1000E00007050202400000070583024000000403E8
:1000F000090412010002EF0201403C410721000106
:1001000001020301556E6B6E6F776E0044656C6C77
:100110002055534220456E747279204B6579626F89
:100120006172640000000000240027002A002D00F6
:100130003000070605040100080A0B0C0D09000039
:100140000000250028002B002E00310004040404C8
:10015000040304050202020204030202020206066C
:100160000606060604040202020404040802011042
:1001700040804010204080408008020401804020E0
:1001800010020110801020404020000000020009F1
:100190000F0000030401000C00000000000000003C
:1001A000000000000000000000000000000000004F
:1001B000002A2B28000000000000000000000000C2
:1001C0000000000000000000002C9EB4A0A1A2A42A
:1001D00034A6A7A5AE362D3738271E1F202122238F
:1001E000242526B333B62EB7B89F848586878889A1
:1001F0008A8B8C8D8E8F90919293949596979899E7
:100200009A9B9C9D2F3130A3AD3504050607080944
:100210000A0B0C0D0E0F10111213141516171819C6
:100220001A1B1C1DAFB1B0B50005010906A101855F
:1002300002050719E029E7150025017501950881D8
:10024000029501750881039506750815002573054B
:1002500007190029738100C0680A11241FBECFEF5F
:10026000DAE0DEBFCDBF11E0A0E0B1E0E0E9FDE102
:1002700002C005900D92A434B107D9F721E0A4E49F
:10028000B1E001C01D92AE3EB207E1F711E0CDE250
:10029000D1E004C02197FE010E94C00ECC32D107EC
:1002A000C9F70E94000B0C94C60E0C940000CF936B
:1002B000DF93FC0181819091BD01482F490F5527A3
:1002C000551F483051059CF5A281B381109709F55F
:1002D00029EB31E03383228320812093BB0180937B
:1002E000BC018091BE01820F80832091BF01A22FAB
:1002F000B091C0018A2F821B8917E8F481813D915A
:10030000C82FD0E0C45FDE4F38838F5F8183F2CF88
:10031000D90118962D913C91199721153105C1F7F6
:1003200029EB31E019963C932E931897D5CF80E0B6
:10033000DF91CF91089581E0FBCFE7E9F1E02491CF
:10034000E8E7F1E03491E9E5F1E09491992309F4CB
:1003500030C02223E9F021502F30D0F4E22FF0E01A
:10036000EC54FE4F0C94C00EE201E601C301DA0129
:10037000DE01C801C801C801E901EF01F301F7017D
:10038000FD01C8010102209180002F772093800099
:10039000E92FF0E0EE0FFF1FE25CFE4FA591B49154
:1003A0009FB7F894EC91811132C030953E233C9375
:1003B0009FBF0895209180002F7DE8CF209180007D
:1003C000277FE4CF24B52F7724BDE2CF24B52F7D3E
:1003D000FBCF209190002F7720939000D9CF2091D0
:1003E00090002F7DF9CF20919000277FF5CF2091AD
:1003F000C0002F772093C000CBCF2091C0002F7D6D
:10040000F9CF2091C200277F2093C200C1CF3E2B9D
:10041000CECFFC0180916801882311F13FB7F89499
:1004200082E08093E9002091F200822F90E018167C
:10043000190614F481E090E0882339F0289844E606
:10044000409367014091F1004083222339F02091CD
:10045000F200211103C02BE62093E8003FBF08956E
:100460008FEF9FEF0895CF93DF931F92CDB7DEB745
:100470006983DC01ED91FC910280F381E02D41E084
:1004800050E0BE016F5F7F4F09950F90DF91CF91D4
:10049000089583E08093E9008091F200882319F0A9
:1004A0008AE38093E8000895CF93DF931F92CDB73E
:1004B000DEB7FC018485958597FD08C02FEF3FEFDF
:1004C000358724870F90DF91CF910895CE01019653
:1004D0000E940902019719F4898190E0F3CF8FEF10
:1004E0009FEFF0CF0F931F93CF93DF931F92CDB762
:1004F000DEB78C01FC018485958597FF0BC0CE018A
:1005000001960E940902019771F4898190E0F80137
:1005100095878487F801848595850F90DF91CF9129
:100520001F910F9108958FEF9FEFF1CFFC0184850C
:10053000958597FD0BC09FB7F89482E08093E90002
:100540008091F2009FBF90E0019608959FB7F894C4
:1005500082E08093E9008091F2009FBF90E00895CF
:100560003FB7F8948091630190916401A091650177
:10057000B091660126B5A89B05C02F3F19F00196E2
:10058000A11DB11D3FBFBA2FA92F982F8827BC01ED
:10059000CD01620F711D811D911D42E0660F771F15
:1005A000881F991F4A95D1F708958F929F92AF9215
:1005B000BF92CF92DF92EF92FF926B017C010E947B
:1005C000B0024B015C01C114D104E104F104B9F0A3
:1005D0000E94B002681979098A099B09683E734034
:1005E0008105910580F321E0C21AD108E108F108E4
:1005F00088EE880E83E0981EA11CB11CE4CFFF900A
:10060000EF90DF90CF90BF90AF909F908F90089524
:100610002FB7F89460915F01709160018091610142
:10062000909162012FBF0895409152015091530162
:10063000209150013091510142175307B4F4909129
:10064000E8009570E1F39091E80092FD19C0809365
:10065000F100809152019091530101968F73992777
:10066000892B19F48EEF8093E800809152019091CC
:1006700053010196909353018093520181E00895B4
:1006800080E00895EF92FF920F931F93CF93DF9333
:10069000F82E192FE62E042F81E0860F880F0E9476
:1006A000140383E00E941403CF2DD12FEC0EFD2EF6
:1006B000F11CCE15DF05B9F007FF13C0FE018491D0
:1006C0000E941403182F80E00E94140381232196B6
:1006D0008111EFCFDF91CF911F910F91FF90EF909C
:1006E00008958881EDCF81E0F5CFDF92EF92FF9200
:1006F0000F931F93CF93DF93D82E8A01EB017B01D9
:10070000E40EF51ECE15DF0559F0D7FE12C0FE012E
:1007100084910E94140321968111F4CF0FEF1FEFF3
:10072000C801DF91CF911F910F91FF90EF90DF9063
:1007300008958881EECF2FB7F89487708093E900F1
:100740009091E800892F807295FF04C09091F2008B
:1007500080E4891B2FBF089583E00E949B0390E0F3
:1007600008957F928F929F92AF92BF92CF92DF9225
:10077000EF92FF920F931F93CF93DF93C82E8B01BD
:100780007A0180916801811110C08FEF9FEFDF9196
:10079000CF911F910F91FF90EF90DF90CF90BF907E
:1007A000AF909F908F907F9008958091560180FF29
:1007B00005C08091E00082608093E000CE2DDF2DA7
:1007C000D12C8AEFB82E8C2D8770982E8C2D8072AC
:1007D000882E8C2D8074782E9AE3A92E209719F4F8
:1007E000DD2009F452C08C2D0E949B0381110AC0A8
:1007F000BA94BB2051F261E070E080E090E00E948A
:10080000D502ECCF8C171D0611F00CF08C2F9FB782
:10081000F8949092E9002091E80025FD02C09FBF66
:10082000DDCF282F30E0C21BD30B882029F0815068
:10083000A0F01092F100FBCFF801C7FC0AC0815074
:1008400050F041914093F100FACF44914093F10070
:1008500031968150D0F7020F131FDD2021F0A092B6
:10086000E800D12CDCCF8091E80085FD07C0A09284
:10087000E800DD24D394209791F2F3CF209779F606
:10088000772069F2A092E800CACF5D9884E6809351
:100890005501C7017CCFCF93DF93EC0180910B0111
:1008A000882331F083E00E94B1031816190634F052
:1008B00081E090E09B838A8380E090E0DF91CF919C
:1008C0000895615030F02091F100FC0120830196E1
:1008D000F8CF289884E680936701089580914801B5
:1008E00081110DC082E08093440184E08093450132
:1008F000109247011092460181E08093480184E400
:1009000091E00895EF92FF921F93CF93DF931F9290
:10091000CDB7DEB77C018091CA0181112AC011E0F8
:100920001093BD011093BE0183EC91E09093C00140
:100930008093BF011092C2011092C1018DE291E03B
:100940009093BA018093B9011092C5011092C4012D
:100950001092C7011092C6011093C8011093C901EB
:1009600081EC8093C3010E946E040E945701109392
:10097000CA0182E0898341E050E0BE016F5F7F4F92
:100980008091BC010E94B10397FD08C08091BC0119
:1009900048E050E0B70180640E94B1030F90DF91FE
:1009A000CF911F91FF90EF900895E0EEF1E0168255
:1009B00017821086118612861386148284EE91E0C7
:1009C0000C9482040F931F93CF93DF931F92CDB7A4
:1009D000DEB782E0898342E450E06CEA70E080E8B0
:1009E0000E9475030E946E04DC0112960D911C9109
:1009F0000115110589F0D801ED91FC910280F38178
:100A0000E02DBE016F5F7F4FC801099597FD04C0BF
:100A1000F80100851185ECCF89810F90DF91CF918E
:100A20001F910F910895DC01FB0112962C911297F2
:100A3000848195812817190641F491818081813A3A
:100A400031F49D7F81E0913009F080E0089581329A
:100A5000E1F79B3029F482811F968C9381E0089501
:100A60009A3099F7828150968C93F8CFDC01FB0184
:100A700088E4808389E4818384E482831D969C9149
:100A80001D979F709F5B93831D968D919C9124E091
:100A9000969587952A95E1F78F708F5B848385E023
:100AA0000895EF92FF920F931F93CF93DF93FB0173
:100AB0002081213871F52381223259F5DC0112960B
:100AC0004C91248135814217130619F5EC010B85F1
:100AD0001C85F12CE12C0115110589F0F8014481E8
:100AE00055816281738180E80E9475038F3F98076A
:100AF00049F0E80EF91ED8010D911C91ECCF81E070
:100B00008F87C701DF91CF911F910F91FF90EF90D9
:100B1000089590E080E0F6CFCF93DF93CDB7DEB7B6
:100B200069970FB6F894DEBF0FBECDBFFC01DB01A5
:100B30008C918F5F8C939E012D5F3F4F8DE0D9018B
:100B40001D928A95E9F729E0298384E08A8391E060
:100B50009D8383E08E832A8721E22B879C879D8754
:100B60009F8722E2288B27E02B8B25E02C8B8E8B16
:100B700020E430E0388F2F8B998F82818B8395858D
:100B80008685998B8A8B838180688D8B49E150E0C3
:100B9000BE016F5F7F4F80E00E94750369960FB6BC
:100BA000F894DEBF0FBECDBFDF91CF910895CF92F5
:100BB000DF92EF92FF920F931F93CF93DF936C011D
:100BC000EB017B01E40EF51E10E000E0CE15DF0521
:100BD00081F069916D30D1F3D601ED91FC910190D6
:100BE000F081E02DC6010995892B19F00F5F1F4F89
:100BF000EDCFC801DF91CF911F910F91FF90EF9042
:100C0000DF90CF900895DC016838A0F06858FD01AE
:100C100086E0662321F09681961301C016828150EA
:100C200031968111F6CFCD0104960E94820481E0B5
:100C300090E00895862F90E067FF13C0FC01E05814
:100C4000F10981E090E001C0880FEA95EAF780950C
:100C500014969C911497892314968C93149760E0B2
:100C6000D6CF1C96ED91FC911D97E80FF91F64916A
:100C70006623E1F0862F807C803C69F414968C9189
:100C800014978F7B14968C9314976F73623309F0CB
:100C9000BECF64E6BCCF67FFF9CF14968C91149752
:100CA0008D7F14968C9314976F77F0CF90E080E04F
:100CB0000895DC01683888F1685816968C9116976B
:100CC000861721F117968C9117978617F9F01896C9
:100CD0008C9118978617D1F019968C9119978617D1
:100CE000A9F01A968C911A97861781F01B968C9111
:100CF0001B97861759F0FD01369690E080E0219110
:100D000021114FC08A0F9B1FFC016683CD01049601
:100D10000E94820481E090E00895862F90E067FFB2
:100D200012C0FC01E058F10921E030E001C0220FBF
:100D3000EA95EAF714968C911497822B14968C936B
:100D4000149760E0BACF1C96ED91FC911D97E80FC7
:100D5000F91F6491611109C081E090E013969C93A2
:100D60008E93129790E080E00895862F807C803CDF
:100D700069F414968C911497806414968C9314974C
:100D80006F73623309F099CF64E697CF67FFF9CFAD
:100D900014968C911497826014968C9314976F77A5
:100DA000F0CF01968630910509F0A9CFD5CFEF920B
:100DB000FF921F93CF93DF93EC01162F0E945906E9
:100DC0007C01612FCE010E940306C7019927DF91A4
:100DD000CF911F91FF90EF900895089590E080E0EB
:100DE0000895CF92DF92EF92FF926B017C01C114C4
:100DF000D104E104F10441F00E94050EA70196011F
:100E00000E945D0E6B017C01C701B601FF90EF905F
:100E1000DF90CF9008958F929F92AF92BF92CF9222
:100E2000DF92EF92FF924B015C010E9408036B017D
:100E30007C010E9408036C197D098E099F096815C1
:100E400079058A059B0588F480915D01882369F006
:100E50006AE070E080E090E00E94F1066B5F7F4FF7
:100E60008F4F9F4F0E94D502E4CFFF90EF90DF900D
:100E7000CF90BF90AF909F908F900895CF92DF92C8
:100E8000EF92FF92CF93C82F6B01052E000C660BDB
:100E9000770B0D2C000CEE08FF08C416D506E606ED
:100EA000F70664F4CB01BA016C197D098E099F091C
:100EB0000E94F106C60ED71EE81EF91EC701B60134
:100EC0000E940B076C2F80EE91E00E94590664E6A9
:100ED00070E080E090E00E94F106605B7F4F8F4FF2
:100EE0009F4F0E940B076C2F80EE91E0CF91FF90F7
:100EF000EF90DF90CF900C9403061F920F920FB6E5
:100F00000F9211242F933F938F939F93AF93BF938F
:100F100080915F0190916001A0916101B0916201A7
:100F200030915E0123E0230F2D3758F50196A11D66
:100F3000B11D20935E0180935F0190936001A093A7
:100F40006101B09362018091630190916401A0916D
:100F50006501B09166010196A11DB11D80936301E9
:100F600090936401A0936501B0936601BF91AF9126
:100F70009F918F913F912F910F900FBE0F901F90D7
:100F8000189526E8230F0296A11DB11DD2CF1F92FE
:100F90000F920FB60F9211248F939F938091E100CF
:100FA0009091E100937F9093E10083FF0FC0109236
:100FB000E90091E09093EB001092EC0092E39093A3
:100FC000ED001092680198E09093F00082FF22C03B
:100FD00093E09093E9009091F200992319F09AE33D
:100FE0009093E80090915501992341F0909155011B
:100FF000915090935501911101C05D9A90916701B4
:10100000992341F09091670191509093670191115C
:1010100001C0289A84FF18C08091E2008E7E816012
:101020008093E2008091E1008F7E8093E1008091C7
:1010300056018E7E8061809356019F918F910F9013
:101040000FBE0F901F90189580FFF7CF8091E200A0
:101050008E7E80618093E2008091E1008E7E80939D
:10106000E100809156018E7E8160E5CF1F920F9244
:101070000FB60F921124CF92DF92EF92FF920F934F
:101080001F932F933F934F935F936F937F938F9310
:101090009F93AF93BF93EF93FF93CF93DF93CDB71E
:1010A000DEB76C97DEBFCDBF1092E9008091E800FB
:1010B00083FF25C068E0CE0145960E94610482EF5F
:1010C0008093E8008D8987FF39C09091E80090FFF8
:1010D000FCCF982F907609F034C19E894F89588DA6
:1010E0002F89F88C911131C0803861F580915701BA
:1010F0008093F1001092F1008EEF8093E8006C96DF
:101100000FB6F894DEBF0FBECDBFDF91CF91FF9138
:10111000EF91BF91AF919F918F917F916F915F916F
:101120004F913F912F911F910F91FF90EF90DF9082
:10113000CF900F900FBE0F901F9018959EEF909339
:10114000E800C7CF1092F100D5CF913059F481114A
:10115000D3CF4130510581F6809157018D7F809327
:101160005701CACF933049F48111C6CF41305105A0
:1011700019F6809157018260F2CF953041F4809149
:10118000E80080FFFCCF20682093E300B5CF9630C5
:1011900009F0A9C00B8D1C8D22E01092E90010927D
:1011A000530110925201F2122EC01092510110926E
:1011B00050010E94E2041F8299E09983FA8291E033
:1011C0009E8390EA98879AEF9987209152013091F7
:1011D0005301275F3F4F3C832B838D831092E9009F
:1011E000109253011092520110935101009350013B
:1011F00049E050E0BE016F5F7F4F80E00E947503C1
:101200000E94E20479CF10935101009350010E9493
:101210006E04DC0112960D911C910115110509F463
:1012200051C1D801ED91FC910480F581E02DBE0102
:101230006B5E7F4FC8010995009709F03EC1F80128
:1012400000851185EACFF3E0FF120EC08F89882355
:1012500009F440C0823061F440E867E18CE091E03D
:101260000E944203811148CF81E28093EB0047CF77
:10127000813029F440E867E084E091E0F1CF8330E9
:1012800099F70E946E04DC011296ED90FC908E019D
:101290000F5F1F4F6801E114F10479F0D701ED9160
:1012A000FC910680F781E02DB801C7010995080F70
:1012B000111DF701E084F184EECFD8011C92F601F4
:1012C00001900020E9F73197BF016C197D0940E0DA
:1012D000C601C6CF6EEE70E0FB01449150E080E89D
:1012E0000E94750309CF973009F4BECF983021F4DE
:1012F00081E08093F10000CF993009F0FDCE83703A
:1013000009F0B2CFEDE0F1E081E031E096E3219128
:10131000222371F08093E9003093EB00DF011197F5
:101320002C912093EC009093ED008F5F873079F73C
:101330008EE78093EA001092EA008F89809368011B
:10134000DBCE8B8D9C8D1092E90010925301109290
:1013500052019093510180935001898D811192C067
:101360008E899D89913A49F4813209F07DCF47E019
:1013700050E064E071E080E0B3CF913209F074CFC7
:10138000833269F48F89988DB0E0A0E080930001EA
:1013900090930101A0930201B0930301ADCE80327E
:1013A00069F48091E80082FFFCCF67E084E091E07F
:1013B0000E9461048BEF8093E8009ECE823209F098
:1013C0009BCE8F8980930B01EEEFFFE7859194917F
:1013D0008B3F9C4D51F1E0E0F8E080910401909149
:1013E0000501A0910601B0910701803B9440A10541
:1013F000B105F1F480910B0180FD1AC0EE3F8AE047
:10140000F80789F587E797E79183808380916000EB
:101410008093540188E19BE00FB6F894A8958093DF
:1014200060000FBE9093600067CEEEEFFAE0D5CF7C
:10143000808191818737974709F05ECEA89580918A
:101440006000886180936000809154018093600007
:10145000EE3F2AE0F20789F08091FE0A9091FF0AA0
:101460009183808349CE808191818737980751F29B
:101470009093FF0A8093FE0AC5CF1092FF0A109244
:10148000FE0A3ACE0E946E04DC0112960D911C9168
:101490000115110509F4E8CED801ED91FC910190F8
:1014A000F081E02DBE016B5E7F4FC801099581116F
:1014B00023CEF80100851185EBCF181619060CF420
:1014C0001BCED2CEF1E0FF12BECE62EF70E004CFB1
:1014D000CF9310926C0110926B0188EE93E0A0E024
:1014E000B0E080936D0190936E01A0936F01B09373
:1014F00070018BE191E090936A01809369018FEF15
:101500009FEF90937601809375011092E301109202
:10151000E20189E391E09093E1018093E001809101
:10152000D801811113C01092D3011092D20189E227
:1015300092E09093D5018093D4018FE290E0909354
:10154000D7018093D60181E08093D8018091CA01B0
:1015500081112AC0C1E0C093BD01C093BE0183ECDC
:1015600091E09093C0018093BF011092C20110924C
:10157000C1018DE291E09093BA018093B90110927C
:10158000C5011092C4011092C7011092C601C09308
:10159000C801C093C90181EC8093C3010E946E040D
:1015A0000E945701C093CA01E091C401F091C501A6
:1015B0003097E9F482ED91E09093C5018093C401E6
:1015C0008091C6019091C7012091D6013091D70139
:1015D000820F931F9093C7018093C60189EA91E01F
:1015E0009093ED018093EC01CF910895FC018081EF
:1015F00091810097D9F782ED91E091838083E0CFCC
:10160000CF93DF9300D000D0CDB7DEB7789484B508
:10161000826084BD84B5816084BD85B5826085BDEE
:1016200085B5816085BD80916E00816080936E007C
:10163000109281008091810082608093810080916E
:10164000810081608093810080918000816080931F
:101650008000809191008260809391008091910040
:1016600081608093910080919000816080939000D0
:101670008091C10084608093C1008091C10082602C
:101680008093C1008091C10081608093C1008091EE
:10169000C30081608093C3008091C000826080930A
:1016A000C0008091C20081608093C20080917A0066
:1016B000846080937A0080917A00826080937A00BF
:1016C00080917A00816080937A0080917A008068AE
:1016D00080937A001092680110925701109256017F
:1016E0008091D70081608093D70080EA8093D800F2
:1016F00089B5806189BD89B5826089BD09B400FE64
:10170000FDCF61E070E080E090E00E94D502809122
:10171000D8008F7C80618093D8008091E000807F2A
:101720008093E0008091E1008E7E8093E1008DE067
:101730008093E200559A209A89EA91E09093ED0116
:101740008093EC01E8E7F1E02491E9E5F1E0849190
:10175000882399F090E0880F991FFC01EC5DFE4F03
:10176000A591B491FC01E25CFE4F859194918FB7F5
:10177000F894EC91E22BEC938FBFE2E3F1E0E4917B
:1017800090917B008E2F880F880F80729F7D892B10
:1017900080937B00E770E064E0937C0080917A00A6
:1017A000806480937A0080917A0086FDFCCF6091FE
:1017B000780070917900072E000C880B990B611549
:1017C00071058105910511F00E94540E60E177E2E8
:1017D00080E090E00E94D50281E080935D010E944C
:1017E0000803609358017093590180935A019093B4
:1017F0005B0111E080915D01882309F4AFC0809105
:101800005C018111ABC00E940803C0905801D090C8
:101810005901E0905A01F0905B016C197D098E0925
:101820009F096034714D8C40910508F49FC010925F
:101830005D0110935C010E94D50464EF71E080E0CB
:1018400090E00E94D5026DE380EE91E00E9459067F
:1018500064E670E080E090E00E94F1066C597F4FF2
:101860008F4F9F4F0E94D5026DE380EE91E00E9462
:10187000030668EC70E080E090E00E94D50260EB27
:1018800080EE91E00E94590664E670E080E090E00E
:101890000E94F1066C597F4F8F4F9F4F0E94D502D7
:1018A00060EB80EE91E00E9403069EE1E92EF12CB0
:1018B00081E00E949D0162E370E080E090E00E9480
:1018C000D50280E00E949D0162E370E080E090E03C
:1018D0000E94D50231E0E31AF10851F70E94D504C5
:1018E00064EF71E080E090E00E94D50263E880EE52
:1018F00091E00E94590662E780EE91E00E9459064D
:1019000064E670E080E090E00E94F1066A567F4F46
:101910008F4F9F4F0E94D5020E94D5046CED75E059
:1019200080E090E00E94D50289E1E82EF12C62EB84
:1019300080EE91E00E94D70641E0E41AF108B9F781
:1019400068EC70E080E090E00E94D50241E050E059
:1019500061E471E080EE91E00E94D70540E050E044
:10196000452B09F447CF0E94000044CF48EE53E0D6
:1019700064EF71E086E70E943E0764EF71E080E06B
:1019800090E00E94F1066C507E4F8F4F9F4F0E9457
:101990000B074CE251E068E770E08AED0E943E07D9
:1019A00048EE53E064EF71E086E70E943E0762EC88
:1019B00071E080E090E00E94F106625A7E4F8F4F06
:1019C0009F4F0E940B0744E650E062E370E081E421
:1019D0000E943E0768EE73E080E090E00E94F1060E
:1019E0006854744F8F4F9F4F0E940B074CE251E099
:1019F00068E770E08AED0E943E0748EE53E064EF2E
:101A000071E086E70E943E0768EE73E080E090E0B8
:101A10000E94F1066854744F8F4F9F4F0E940B072E
:101A200062E070E080E090E00E94F10661307105B4
:101A30008105910511F562E880EE91E00E9459065A
:101A400066E970E080E090E00E94F1066C597F4FFB
:101A50008F4F9F4F0E94D50262E880EE91E00E9476
:101A6000030668EC70E080E090E00E94F1066057A9
:101A70007E4F8F4F9F4F0E940B074CE251E068E76B
:101A800070E08AED0E943E0761E375E780E090E038
:101A90000E94F1069B01AC0128503B4D4E4F5F4F19
:101AA00029833A834B835C830E9408032B013C010A
:101AB0000E9408034B015C0169EB7BE080E090E051
:101AC0000E94F1066B017C0130EDC30E37E0D31E9E
:101AD000E11CF11C0E940803641975098609970925
:101AE00029813A814B815C816217730784079507CE
:101AF00008F034CF80915D01882309F42FCF0E9434
:101B00000803681979098A099B096C157D058E05FA
:101B10009F0540F163E780EE91E00E94590666E47C
:101B200070E080E090E00E94F106605B7F4F8F4F95
:101B30009F4F0E94D50263E780EE91E00E9403066A
:101B40000E9408034B015C0169EB7BE080E090E0C0
:101B50000E94F1066B017C0130EDC30E37E0D31E0D
:101B6000E11CF11C6AE070E080E090E00E94D50288
:101B7000B1CF8F929F92AF92BF92CF92DF92EF92AE
:101B8000FF92CF93DF93EC01688179818A819B81F9
:101B9000611571058105910521F464E279ED8BE50C
:101BA00097E02DE133EF41E050E00E945D0E4901E6
:101BB0005A019B01AC01A7EAB1E40E947C0E6B01C3
:101BC0007C01ACEEB4EFA50194010E948A0EC60E12
:101BD000D71EE81EF91EF7FE06C081E0C81AD1081C
:101BE000E10880E8F80AC882D982EA82FB82C7014C
:101BF000B6019F77DF91CF91FF90EF90DF90CF906C
:101C0000BF90AF909F908F9008958F929F92AF92C8
:101C1000BF92CF92DF92EF92FF9260911301709189
:101C200014018091150190911601611571058105CE
:101C3000910521F464E279ED8BE597E02DE133EF36
:101C400041E050E00E945D0E49015A019B01AC0148
:101C5000A7EAB1E40E947C0E6B017C01ACEEB4EF0C
:101C6000A50194010E948A0EC60ED71EE81EF91E19
:101C7000F7FE06C081E0C81AD108E10880E8F80A3A
:101C8000C0921301D0921401E0921501F092160156
:101C9000C701B6019F77FF90EF90DF90CF90BF9084
:101CA000AF909F908F9008956093130170931401EB
:101CB00080931501909316010895052E97FB1EF44D
:101CC00000940E94740E57FD07D00E948F0E07FCEF
:101CD00003D04EF40C94740E509540953095219598
:101CE0003F4F4F4F5F4F0895909580957095619548
:101CF0007F4F8F4F9F4F08950E94B10EA59F900D6B
:101D0000B49F900DA49F800D911D11240895B7FFDD
:101D10000C947C0E0E947C0E821B930B0895A1E212
:101D20001A2EAA1BBB1BFD010DC0AA1FBB1FEE1F55
:101D3000FF1FA217B307E407F50720F0A21BB30BA0
:101D4000E40BF50B661F771F881F991F1A9469F71C
:101D500060957095809590959B01AC01BD01CF0178
:101D60000895A29FB001B39FC001A39F700D811D74
:101D70001124911DB29F700D811D1124911D089594
:101D8000EE0FFF1F0590F491E02D0994F894FFCF1A
:101D9000FFFFFFFF00E100000000000000C18081A4
:101DA000000000010000000000000033024B04AC02
:101DB0000349029602540272020000000013058CCF
:101DC000055105360500000000D706D705EE06EDE3
:041DD00006310000D8
:00000001FF
